:10000000E8C1000017C2000015C2000013C20000C2
:1000100011C200000FC200000DC200000BC20000A0
:1000200009C200000C94FD150C94FD150C94FD15EF
:100030000C94441EFFC10000FDC10000FBC1000084
:10004000F9C100004BC30000F5C10000F3C100007E
:10005000F1C10000EFC10000EDC100000C94581E7A
:10006000E9C100000C9493210C94C921E3C1000064
:10007000E1C10000DFC10000DDC10000DBC1000004
:100080005AC30000D7C10000D5C10000D3C1000091
:10009000D1C10000CFC10000CDC100000C94C6103A
:1000A000C9C10000C7C1000073C30000C3C1000084
:1000B000C1C10000BFC10000BDC1000096C3000067
:1000C000B9C10000B7C10000B5C10000B3C1000054
:1000D000B1C10000AFC10000ADC10000ABC1000064
:1000E000A9C10000031D0F1D131D191D1E1D321D6A
:1000F0003B1D411D461D4B1D4B1D4B1D4B1D4B1DDF
:100100004B1D4B1D4B1D4B1D4B1D4B1D4B1D4B1DAF
:100110004B1D4B1D4B1D4B1D4B1D4B1D4B1D4B1D9F
:100120004B1D4B1D031D081D0F1D131D191D1E1DED
:10013000241D281D2D1D7B1F7E1F6D1F711F771F06
:10014000B51F821F861F8C1F901F941F9A1F9E1F12
:10015000A21FB51FA81FAC1FB01F084AD73B3BCE3C
:10016000016E84BCBFFDC12F3D6C74319ABD5683B6
:100170003DDA3D00C77F11BED9E4BB4C3E916BAA6E
:10018000AABE000000803F05A84CCDB2D44EB938BD
:1001900036A9020C50B9918688083CA6AAAA2ABEA4
:1001A000000000803F00005EBCE2613FDD83C29C36
:1001B0007E20A3FD1F419DC3217FFCA2401E5F0145
:1001C000E3BD3E6082DC237D9FC1421CFEA0E1BFF7
:1001D0005D0380DE3C62BEE0025CDF81633D7C2229
:1001E000C09E1D43A1FF4618FAA427799BC584DA57
:1001F0003866E5BB5907DB856739BAE40658194705
:10020000A5FB7826C49A653BD987045AB8E6A7F9B6
:100210001B45C6987A24F8A6441A99C7257B3A64E8
:1002200086D85B05E7B98CD2306EEDB3510F4E1016
:10023000F2AC2F7193CD114FADF3702ECC92D38DC4
:100240006F31B2EC0E50AFF1134DCE90722C6D3376
:10025000D18F0C52B0EE326C8ED0530DEFB1F0AEA8
:100260004C1291CF2D73CA947628ABF517490856D6
:10027000B4EA6937D58B5709EBB536688AD495CB84
:100280002977F4AA4816E9B7550B88D6346A2B7536
:1002900097C94A14F6A8742AC896154BA9F7B6E868
:1002A0000A54D7896B3500000A0B02090C0D0E08A1
:1002B000070304010000000000000000000000002F
:1002C000000000000000000000000000000000002E
:1002D00000001211100000000000000000000000EB
:1002E00000000000000000000000000001021020DB
:1002F000200808102040102040800201020108045C
:1003000002010102040810204080804020100804EF
:100310000201800402018040201008040201080448
:10032000020101020408102040800102040810208C
:1003300040800505050507050808080802020202B5
:100340000A0A080804040404010101010101010171
:100350000303030303030303040707070C0C0C0C3C
:100360000C0C0C0C02020202060606060606060625
:100370000B0B0B0B0B0B0B0B0000200023002600BC
:1003800029002C002F0032000001000003010601AB
:10039000090100002200250028002B002E0031005A
:1003A000340002010000050108010B0100002100DA
:1003B000240027002A002D00300033000101000036
:1003C000040107010A015608E50FFD11EA14FB219B
:1003D000F01411241FBECFEFD1E2DEBFCDBF00E08D
:1003E0000CBF13E0A0E0B2E0E4E1F2E500E00BBFF7
:1003F00002C007900D92A038B107D9F726E0A0E817
:10040000B3E001C01D92AC32B207E1F713E0C0EDDA
:10041000D3E000E006C022970109FE010BBF0E9455
:100420004A27C63CD10780E00807A9F70E943F226F
:100430000C94F928E5CDCF93DF9326E040E855E210
:1004400060E070E08BE895E00E94332184E090E06A
:100450000E944B22EC0180D5D0938903C09388037E
:1004600066E172E08BE895E00E9494228CEB90E0CC
:100470000E944B22EC0160918803709189030E94D5
:100480005C13D0938B03C0938A036AE272E08BE81B
:1004900095E00E94942284E090E00E944B22EC01BF
:1004A000409188035091890360918A0370918B0376
:1004B0000E94A70BD0938703C093860361E472E088
:1004C0008BE895E00E9494228AE090E00E944B2203
:1004D000EC0120918603309187034091880350916D
:1004E000890360918A0370918B03C1D3D0938503F4
:1004F000C093840363E572E08BE895E00E94942248
:1005000064E670E080E090E0DF91CF910C94D11E22
:100510000E94A21E609380037093810380938203E4
:10052000909383038091840390918503F8D40E9473
:10053000A21EAB01BC018091800390918103A09128
:100540008203B0918303481B590B6A0B7B0B2AE093
:1005500030E08BE895E00C940D23CF92DF92EF9280
:10056000FF920F931F93CF93DF936C018B017A015E
:10057000EC01C357DC4F888187FF04C0FB01118267
:10058000108223C02CE02C9DC0012D9D900D1124C4
:100590002881AC01420F511D27FD5A9520918C03F3
:1005A00030E0421753078CF42881AC01420F511DF3
:1005B00027FD5A959A01FA01EE0FFF1FE20FF31F74
:1005C000EF56FC4F208126FD19C088818F5F8883FC
:1005D0008CE08C9D90018D9D300D11248881A901A6
:1005E000480F511D87FD5A9580918C0390E0481764
:1005F0005907B4F488818C303CF112C02881820FF5
:10060000911D27FD9A95FC01EE0FFF1FE80FF91FC2
:10061000EF56FC4F808160E08F730E94EF1FD5CFB3
:10062000F80180819181049680349C4918F480E41B
:100630009CE904C0F801808191810496F7019183BF
:1006400080838FEF888341C0F80180819181488148
:10065000B901640F711D47FD7A95AB01FB01EE0FE7
:10066000FF1FE40FF51FEF56FC4F41815281840FAD
:10067000951FF701918380838881A901480F511D3F
:1006800087FD5A95FA01EE0FFF1FE40FF51FEF5695
:10069000FC4F808186FF19C08881280F311D87FD9E
:1006A0003A95F901EE0FFF1FE20FF31FEF56FC4FD3
:1006B000808161E08F73DF91CF911F910F91FF9047
:1006C000EF90DF90CF900C94EF1FDF91CF911F91AF
:1006D0000F91FF90EF90DF90CF9008951F920F92AF
:1006E0000FB60F9211240BB60F922F933F934F9397
:1006F0005F936F937F938F939F93AF93BF93EF938A
:10070000FF9348E850E064E870E081E090E025DF86
:10071000FF91EF91BF91AF919F918F917F916F91D9
:100720005F914F913F912F910F900BBE0F900FBE95
:100730000F901F9018951F920F920FB60F921124D1
:100740000BB60F922F933F934F935F936F937F93CB
:100750008F939F93AF93BF93EF93FF9348E950E03C
:1007600064E970E082E090E0F8DEFF91EF91BF91E4
:10077000AF919F918F917F916F915F914F913F9139
:100780002F910F900BBE0F900FBE0F901F901895DA
:100790001F920F920FB60F9211240BB60F922F9348
:1007A0003F934F935F936F937F938F939F93AF93F9
:1007B000BF93EF93FF9348EA50E064EA70E083E070
:1007C00090E0CBDEFF91EF91BF91AF919F918F9120
:1007D0007F916F915F914F913F912F910F900BBE41
:1007E0000F900FBE0F901F9018951F920F920FB68B
:1007F0000F9211240BB60F922F933F934F935F9359
:100800006F937F938F939F93AF93BF93EF93FF93D8
:1008100048E251E064E271E080E090E09EDEFF910A
:10082000EF91BF91AF919F918F917F916F915F9168
:100830004F913F912F910F900BBE0F900FBE0F90D5
:100840001F90189520918C032033A0F431E0320FD3
:1008500030938C03FC012083822F90E0FC01EE0F8B
:10086000FF1FE80FF91FEF56FC4F88EB9BE09283C8
:10087000818308952FEFFC0120830895DF92EF928A
:10088000FF920F931F93CF93DF93EC01D62E7A0143
:1008900089018881803308F068C061E08D2D0E9455
:1008A000B61F8881A82FB0E0FD01EE0FFF1FEA0FF1
:1008B000FB1FEF56FC4F2D2D2F739081907C922BB8
:1008C000908360E272E06E197F0977FF02C06D5F6E
:1008D0007F4F7595679575956795698340E659E0F3
:1008E000401B510B57FF02C04D5F5F4F5595479519
:1008F000559547954A836CE00E94C8269CE0899FE5
:10090000B001112420E030E0A901460F571FFA0181
:10091000EE0FFF1FE40FF51FEF56FC4F908196FD81
:1009200018C02F5F3F4F2C30310571F790E08130B8
:10093000910521F51092800082E080938100109251
:10094000850010928400B19A80916F00826080933C
:100950006F00888190E0FC01EE0FFF1FE80FF91F88
:10096000EF56FC4F8081806480838881DF91CF9136
:100970001F910F91FF90EF90DF90089582309105C5
:1009800069F41092900082E080939100109295009B
:100990001092940088BB80937100DBCF8330910567
:1009A00069F41092A00082E08093A1001092A5004B
:1009B0001092A40089BB80937200CBCF892B49F69B
:1009C0001092200182E08093210110922501109263
:1009D00024018ABB80937300BCCF20E639E040E25B
:1009E00052E04CCFFC018081803370F5918128E882
:1009F00030E0291B310997FD3395220F331F220F59
:100A0000331F621773077CF0928128E532E0291BBF
:100A1000310997FD3395220F331F220F331F6217C1
:100A200073070CF49B0122503109220F331F4FB77B
:100A3000F89490E0FC01EE0FFF1FE80FF91FEF564E
:100A4000FC4F328321834FBF08954F925F926F9284
:100A50007F92AF92BF92CF92DF92EF92FF920F936D
:100A60001F93CF93DF93EC01603282E078070CF0A4
:100A700040C077FD06C0653B71052CF064EB70E06B
:100A800002C060E070E0898128E830E0281B31096D
:100A900087FD3395220F331F220F331F5901CC24BA
:100AA000B7FCC094DC2C882777FD8095982F2A818D
:100AB00048E552E0421B510927FD5395440F551F4D
:100AC000440F551F2A01662457FC6094762C7F92B0
:100AD0006F925F924F9214EBE12EF12C00E010E048
:100AE00020E030E0A9010E941D230F900F900F908D
:100AF0000F90CE01DF91CF911F910F91FF90EF905A
:100B0000DF90CF90BF90AF907F906F905F904F90AD
:100B100069CF0F931F93CF93DF93EC018C01065F96
:100B20001F4FC8018FDE188268E270E0C80155DFF0
:100B300081E089838A831B82DF91CF911F910F917E
:100B40000895CF93DF93EC0160E08EE10E94EF1FE8
:100B500060E08FE10E94EF1F60E080E20E94EF1FE3
:100B60001882DF91CF910895CF93DF93EC018881B4
:100B700081111FC08A81882321F061E08EE10E94EB
:100B8000EF1F8981882341F061E08FE10E94EF1F10
:100B900084E190E09D838C838B81882351F061E018
:100BA00080E20E94EF1F84E190E09F838E8399870B
:100BB000888781E08883DF91CF910895FC0180814F
:100BC0000895FC01908181E089270895CF93DF93F8
:100BD000EC01B7DF8981882321F0198281E08B83C2
:100BE00003C081E089831B82DF91CF91089516169F
:100BF000170634F46F3171054CF06EE170E006C0F9
:100C0000623E2FEF720714F462EE7FEF665A7F4F59
:100C10000A961BCFFC01CB012181222319F020E091
:100C200030E002C024E130E06EE170E00E94D426A2
:100C3000623071053CF0620F731F778366833187E2
:100C4000208708956F3F8FEF78073CF4C901861B1A
:100C5000970B91878087378326830895FC01228133
:100C60002111C5CFFC0123812111D4CF6ACF0F936D
:100C70001F93CF93DF93EC01798368835B834A836F
:100C80003D832C838DE090E00E944B228C0141DF5C
:100C90001F830E83DF91CF911F910F910895CF9302
:100CA000DF93EC018A819B815BD1882329F06DE27F
:100CB00070E08A819B8158D18A819B8153D18111B7
:100CC00007C06DE270E08A819B81DF91CF914EC1B8
:100CD000DF91CF9108950F931F93CF93DF93CDB7FB
:100CE000DEB7E2970FB6F894DEBF0FBECDBF8C0122
:100CF000FC0184819581F5D58823A1F065E672E039
:100D00008BE895E00E949422BE016F5F7F4FF8014F
:100D10008481958195D5BE016F5F7F4FF8018481F5
:100D200095811DD5E2960FB6F894DEBF0FBECDBFFC
:100D3000DF91CF911F910F910895CF93DF93EC0135
:100D40008A819B8115D1882321F08E819F813EDF8E
:100D50000CC08A819B810ED1811107C062E370E0D3
:100D60008A819B81DF91CF9101C181E0DF91CF9199
:100D700008950F931F93CF93DF93EC018CE3869F2D
:100D80008001879F100D1124888599858017910710
:100D9000C4F460E087E10E94EF1F20E030E040E013
:100DA00050E069E070E081E895E00E940D1E61E08E
:100DB00087E10E94EF1F8885998508969987888723
:100DC000E3CFDF91CF911F910F910895EF92FF92A2
:100DD0000F931F93CF93DF9300D01F92CDB7DEB751
:100DE0008C0119821A821B821C82FC0180819181F4
:100DF0000E94F314811104C0F80186819781A1DE5D
:100E0000E12CF12CF801808191810E94F314811171
:100E100004C0F3E0EF16F10481F4F80180819181C0
:100E20000E94F3140F900F900F900F90DF91CF91CD
:100E30001F910F91FF90EF9008956FE972E08BE89A
:100E400095E00E9494224DE250E0BE016F5F7F4F1B
:100E5000F8018281938190D0882339F0F801808154
:100E600091810E94F3148823A9F0F8018081918177
:100E70000E94F3148111C6CF69E772E08BE895E018
:100E80000E9494226AE070E0C80173DFFFEFEF1A5E
:100E9000FF0AB8CFF801808191810E94F314D3CF6B
:100EA000CF93DF93EC0192DF888199810E94201417
:100EB000BC018E819F81DF91CF91D0CE0F931F9384
:100EC000CF93DF93EC018E819F8178DE882339F008
:100ED00062E370E08A819B8147D0811115C08A81CD
:100EE0009B81E1D08C018E819F816BDE882391F004
:100EF0000130110579F4CE01D3DF8E819F81DF911E
:100F0000CF911F910F9130CECE01DF91CF911F91E4
:100F10000F91C6CFDF91CF911F910F910895CF937D
:100F2000DF93EC01BCDECE01D6DECE0106DF8823E6
:100F300019F08E819F8105DECE01C0DF8E819F81F9
:100F400040DE882331F06AE070E0CE01DF91CF917E
:100F500010CFDF91CF910895FC0113821282089582
:100F600080E0089581E0089581E0089580E008958B
:100F700080E0089580E00895CF92DF92EF92FF9293
:100F80000F931F93CF93DF93EB018A01888199819F
:100F9000AA81BB81892B8A2B8B2B69F49AD62227B5
:100FA00017FD2095322F600F711F821F931F6883DA
:100FB00079838A839B838DD621E0C880D980EA809B
:100FC000FB80C616D706E806F90608F020E0822F57
:100FD000DF91CF911F910F91FF90EF90DF90CF9015
:100FE0000895AF92BF92CF92DF92EF92FF920F934C
:100FF0001F93CF93DF9300D01F92CDB7DEB78C0144
:101000005B0119821A821B821C8261E086E10E94C8
:10101000EF1FC12CD12C84E3E82E83ECF82E43E0A3
:1010200050E0BE016F5F7F4FC501A6DF81111DC07B
:1010300081E294E092D26AE072E081E294E04DD3E2
:101040007AD36B017C0120E030E048EC52EC0E9446
:101050002A2487FDE4CF20E030E04AE253E4C701D0
:10106000B6010E94DA251816D4F280E1F801119237
:101070008A95E9F7F801C082D182E282F38260E0CA
:1010800086E10E94EF1FC8010F900F900F900F9004
:10109000DF91CF911F910F91FF90EF90DF90CF9054
:1010A000BF90AF90089582E090E0089562E084E3FD
:1010B00094E03ED164E374E081E294E068C1FF9281
:1010C0000F931F93CF93DF93FC010081C181D281E5
:1010D000F8948981F02EF0948F21898378941DE70C
:1010E000115029F182E090E00E94F61E8881802351
:1010F000B9F3F8948A818F218A838981802B89832F
:10110000789484EF91E00E94F61EF89489818F21F3
:10111000898380E590E00E94F61E8881802311E09B
:1011200009F010E0789484EA91E00E94F61E812F85
:10113000DF91CF911F910F91FF9008951F93CF934F
:10114000DF93FC011081C181D281912F909560FFC6
:1011500012C0F8948A8189238A838981812B8983AB
:101160008AE090E00E94F61E8A81812B8A8378941F
:1011700087E390E011C0F8948A8189238A8389816A
:10118000812B898381E490E00E94F61E8A81812B65
:101190008A83789485E090E0DF91CF911F910C9441
:1011A000F61E0F931F93CF93DF93FC011081C18133
:1011B000D281F8948981812B89838A81012F0095BE
:1011C00080238A8383E090E00E94F61E8981802339
:1011D00089838AE090E00E94F61EC881789485E3B6
:1011E00090E00E94F61E1C2381E009F480E0DF916C
:1011F000CF911F910F910895CF92DF92EF92FF92BE
:101200000F931F93CF93DF931F92CDB7DEB76C017F
:10121000E62E08E010E0FF24F39461E09F2D9E216C
:1012200009F460E0C601498389DFFF0C0150110910
:1012300049810115110589F7411115C0F894D601AE
:101240001196ED91FC91129791818C918095892353
:1012500081831196ED91FC91129792818C918095EA
:101260008923828378940F90DF91CF911F910F9102
:10127000FF90EF90DF90CF900895EF92FF920F9341
:101280001F93CF93DF938C01C8E0D0E0F12CEE24C4
:10129000E394C80186DF8111FE28EE0C2197C9F77F
:1012A0008F2DDF91CF911F910F91FF90EF900895B7
:1012B000CF92DF92EF92FF920F931F93CF93DF9322
:1012C0001F92CDB7DEB77C01162F40E065E579832C
:1012D00093DFC12E7981D72E00E010E0F6016191F5
:1012E0006F0140E0C70188DF0F5F1F4F0830110515
:1012F000A9F70F90DF91CF911F910F91FF90EF9081
:10130000DF90CF90089540E06CEC76CFFC0113861F
:101310001586148627E030E0DF01A20FB31F139675
:101320001C922115310519F021503109F5CF08958E
:101330001F93CF93DF93EC01162F60E0812F0E9463
:10134000B61F612F70E0FB01E451FD4FE491E8838B
:10135000FB01EE5CFC4FE491F0E0EE0FFF1FE8585C
:10136000FC4F859194919A838983CE01DF91CF912F
:101370001F91CCCFDC0180E0615038F0ED91E8277F
:10138000F0E0EA55FE4F8491F7CF08950895FC01EF
:1013900086EC99E0928B818B768365831482108230
:1013A00089E0818381E0828383830895EF92FF92B5
:1013B0000F931F93CF93DF931F921F92CDB7DEB78A
:1013C0007C018A01FC018581968169837A8377DEBD
:1013D00069817A81F701858196816ADF40E06EEB51
:1013E000F7018581968108DFF7018581968145DFC8
:1013F000F8018083F701858196813FDFF8018183C1
:10140000F7018581968139DFF8018283F7018581B3
:10141000968133DFF8018383F701858196812DDF83
:10142000F8018483F7018581968127DFF8018583A0
:10143000F7018581968121DFF8018683F701858197
:1014400096811BDFF8018783F7018581968115DF7F
:10145000F8018087F701858196810F900F90DF91C9
:10146000CF911F910F91FF90EF9029CECF93DF93F3
:10147000EA019CDF68E0CE017DDF91E028858213E0
:1014800090E0892FDF91CF910895CF93DF93CDB76F
:10149000DEB729970FB6F894DEBF0FBECDBFAE0101
:1014A0004F5F5F4F83DF81E09981911101C080E040
:1014B00029960FB6F894DEBF0FBECDBFDF91CF9156
:1014C0000895CF92DF92EF92FF920F931F93CF93E5
:1014D000DF93EC018B01452BD9F08B818823C1F080
:1014E0008881811115C00E94A21E6B017C0160E001
:1014F00070E0CE01CADF81110BC00E94A21E6C19E0
:101500007D098E099F096E3E72408105910578F331
:10151000F80180818A3049F08B3061F0893079F4AC
:101520006EE570E080E090E00EC06CEB70E080E073
:1015300090E009C067E771E080E090E004C06EEEE3
:1015400072E080E090E0DF91CF911F910F91FF90CA
:10155000EF90DF90CF900C94D11ECF93DF93EC01EE
:101560008D819E81ACDD8D819E81CDDE488164E4DC
:101570008D819E8141DE8A81882349F0BE016F5FA3
:101580007F4F40E050E0CE01DF91CF919ACFDF91C5
:10159000CF9108958F929F92AF92BF92CF92DF9298
:1015A000EF92FF921F93CF93DF93FB01EA016981D2
:1015B00070E0762F66278881682B80818232B1F1B6
:1015C0008832A1F1803109F078C01F817595679547
:1015D000882777FD8095982F0E94CC2420E030E06A
:1015E00040E85EE30E9463236B017C01612F70E0A1
:1015F0008E81681B7109882777FD8095982F0E943E
:10160000CC244B015C01612F70E080E090E00E94EF
:10161000CA249B01AC01C501B4010E9431249B0185
:10162000AC01C701B6010E94642343C08C818F3393
:1016300081F198F48F3109F040C093E0759567957A
:101640009A95E1F7882777FD8095982F0E94CC2402
:1016500020E030E040E05FE32AC08F3569F08F374B
:1016600061F5882777FD8095982F0E94CC2420E093
:1016700030E040E85DE31BC075956795882777FDEE
:101680008095982F0E94CC2420E030E040E05EE37B
:101690000EC07595679575956795882777FD809538
:1016A000982F0E94CC2420E030E040E85EE30E94C6
:1016B000E525562F472F382F292F652F742F832F7D
:1016C000922FDF91CF911F91FF90EF90DF90CF90FD
:1016D000BF90AF909F908F900895EF92FF920F93DD
:1016E0001F93CF93DF93CDB7DEB729970FB6F8944A
:1016F000DEBF0FBECDBF8C017B01AE014F5F5F4FE0
:10170000B5DE882339F0AE014F5F5F4FB701C801E6
:1017100041DF04C060E070E08EEF92EC29960FB6D6
:10172000F894DEBF0FBECDBFDF91CF911F910F9117
:10173000FF90EF90089526E636E646EE5FE30E94BE
:10174000E52520E030E040E052E40C946423FC0105
:10175000718360835383428386E592E156C36EEBC7
:1017600072E08BE895E00E94942249D3682F81E0D3
:1017700090E00E94EB2881E008950F931F93CF9390
:10178000DF93CDB7DEB760970FB6F894DEBF0FBE1C
:10179000CDBF8B01FC0162817381CE01019621DCFA
:1017A00069817A818B819C810E9499246B54710993
:1017B000F801608361836283638360960FB6F89457
:1017C000DEBF0FBECDBFDF91CF911F910F91089566
:1017D000CF93DF93CDB7DEB728970FB6F894DEBF6F
:1017E0000FBECDBF86E19BE0A7ECB2EC8D839E835C
:1017F000AF83B887FE013596DB011996CE010996B5
:101800009F0141914D93E817F907D9F78CE799EAC1
:10181000ABE2B2E489839A83AB83BC83FE01319649
:10182000DB011D9681918D93E217F307D9F7289676
:101830000FB6F894DEBF0FBECDBFDF91CF910895F4
:10184000FF920F931F93CF93DF938C01EB0167EC13
:1018500072E08BE895E00E949422BE01C8018DDF02
:101860008CE7F82EFC8285E08D83FE821F82F8864D
:10187000BE01C801ADDFF98A6CED72E08BE895E03E
:101880000E94942200E010E069914AE050E08BE869
:1018900095E00E9407230F5F1F4F01311105A1F74B
:1018A0006AE08BE895E00E948A226DEE72E08BE898
:1018B00095E0DF91CF911F910F91FF900C949422AE
:1018C000CF9381E090E00E94E328C82F98D22C2F7C
:1018D00030E041E02817390709F040E0842FCF912C
:1018E0000895CF93DF93EC0184D2429734F0CE0178
:1018F000E7DF811102C081E001C080E0DF91CF917C
:1019000008956F927F928F929F92AF92BF92CF92E3
:10191000DF92EF92FF920F931F93CF93DF93EA0131
:101920002CE3C22ED12CE12CF12CA70196010E94B0
:10193000E7266883CA01B901A70196010E94E7263C
:101940006983CA01B90128E130E040E050E00E941B
:10195000E72649015A016A83CA01B9016C5F7F4FCA
:101960008F4F9F4F27E030E040E050E00E94E72695
:101970006F5F6B8300E010E0980140E054E6652E55
:10198000712C60E9C62EDD24D394E42FF0E0EE54F0
:10199000F84F7F0183E0E822FF24E114F10489F489
:1019A000CF01B3010E94D426892B29F08EE691E065
:1019B000A0E0B0E00AC0CF01B6010E94D426892B76
:1019C000A9F38DE691E0A0E0B0E0080F191F2A1FEF
:1019D0003B1FD901C801AA27BB2788169906AA066A
:1019E000BB0610F04F5FD1CF4E83E114F10499F4A0
:1019F000CF0164E670E00E94D426892B29F08EE6A0
:101A000091E0A0E0B0E00BC0CF0160E971E00E947E
:101A1000D426892BA1F38DE691E0A0E0B0E0081B6D
:101A2000190B2A0B3B0B801A910AA20AB30ACF01A9
:101A300064E670E00E94D4269C01CF0160E971E069
:101A40000E94D426E4EFF2E0A0E0A13059F4E114C2
:101A5000F10451F42115310511F04DE106C0009754
:101A6000E1F302C0408101C04CE150E060E070E071
:101A700084169506A606B70640F0841A950AA60AAB
:101A8000B70AAF5F3196AC3001F7AF5FAD83839497
:101A90008C82DF91CF911F910F91FF90EF90DF909B
:101AA000CF90BF90AF909F908F907F906F90089550
:101AB000CF92DF92EF92FF926B017C0180915204F2
:101AC00090915304A0915404B0915504C816D906BE
:101AD000EA06FB0669F046E554E0C701B60111DFEE
:101AE000C0925204D0925304E0925404F0925504F0
:101AF000FF90EF90DF90CF9008956F927F928F923A
:101B00009F92AF92BF92CF92DF92EF92FF920F938C
:101B10001F93CF93DF93FC01C680AC2DB0E020E88B
:101B200033E341EE51E00E943A274B015C0122EB86
:101B300037E06D01C4E6D0E000E911E0C901825B45
:101B400097408C159D05DCF4C90183709927892B7A
:101B500099F4C901BE010E94D426892B31F4C90130
:101B6000B8010E94D426892B39F480E8880E81E5DB
:101B7000981E81E0A81EB11C2F5F3F4FDFCF65800C
:101B8000712C8EE4C81A88EFD80AC60164E670E0AA
:101B90000E94D4268C01C60160E971E00E94D4261F
:101BA0007C01C1E0D0E083E0C822DD24C615D70562
:101BB0002CF5C230D10589F4C114D10471F401159A
:101BC000110519F4E114F10441F480E8880E8BE367
:101BD000981E86E2A81EB11C0FC0DE01AD50BD4F9D
:101BE000AC91B0E020E831E541E050E00E943A27B6
:101BF000860E971EA81EB91E2196D8CF418122813C
:101C000030E0A0E1BEE00E942B276B017C01242F75
:101C100030E0ACE3B0E00E942B27C60ED71EE81ED2
:101C2000F91E8081C80ED11CE11CF11CA481B0E01A
:101C3000119720E831E541E050E00E944427C60EAC
:101C4000D71EE81EF91EC80CD91CEA1CFB1CC701D4
:101C5000B601DF91CF911F910F91FF90EF90DF9030
:101C6000CF90BF90AF909F908F907F906F9008958E
:101C70000F931F9360934E0470934F04809350040E
:101C800090935104009112021091130220911402BA
:101C900030911502060F171F281F391F00934604A5
:101CA00010934704209348043093490482E090E065
:101CB00090934504809344040E94A21E60934A04BA
:101CC00070934B0480934C0490934D041F910F919B
:101CD0000895CF92DF92EF92FF920F931F930E948D
:101CE000A21EC0904A04D0904B04E0904C04F090A7
:101CF0004D046C197D098E099F0900914E041091C5
:101D00004F042091500430915104683E7340810586
:101D10009105D8F00F5F1F4F2F4F3F4F00934E0498
:101D200010934F04209350043093510448EEC40E96
:101D300043E0D41EE11CF11CC0924A04D0924B0433
:101D4000E0924C04F0924D04CACF809146049091E9
:101D50004704A0914804B0914904081719072A07BD
:101D60003B07C0F1E0914204F0914304309791F1B8
:101D70001995611571058105910511F079DF2AC06A
:101D80008091120290911302A0911402B091150259
:101D900040914E0450914F04609150047091510451
:101DA000840F951FA61FB71F809346049093470486
:101DB000A0934804B093490481E090E0209144044A
:101DC00030914504232B11F480E090E0909345047A
:101DD0008093440460914E0470914F0480915004AC
:101DE000909151041F910F91FF90EF90DF90CF9051
:101DF00008956FDF5DDE8091580490E0089569DFFB
:101E000057DE80915A0490E00895909343048093A4
:101E1000420480914E0490914F04A0915004B091DF
:101E200051048093460490934704A0934804B093D0
:101E300049044FCF80918D0490E020918E04821B45
:101E40009109089520918E0480918D04281750F4F3
:101E5000E22FF0E0E157FB4F808190E02F5F20936D
:101E60008E0408958FEF9FEF0895E0918E04809186
:101E70008D04E81730F4F0E0E157FB4F808190E0EB
:101E800008958FEF9FEF08950895CF92DF92EF921C
:101E9000FF920F931F93CF93DF937C01CB018A01B5
:101EA00020916904222389F0EB016B01C40ED51E39
:101EB000CC15DD0561F06991D701ED91FC910190A0
:101EC000F081E02DC7011995F3CF642F36D1C801F9
:101ED000DF91CF911F910F91FF90EF90DF90CF9006
:101EE0000895CF93DF931F92CDB7DEB7698320911A
:101EF00069042223D1F020916A04203240F021E0CD
:101F000030E0FC013383228380E090E014C08091B4
:101F10006B04E82FF0E0E459FB4F998190838F5FC9
:101F200080936B0480936A0404C061E0CE01019643
:101F300004D181E090E00F90DF91CF910895FC01F2
:101F40001382128248EE53E060E070E044835583D0
:101F50006683778384E093E0918380830895109271
:101F60008E0410928D0410926B0410926A0430C09B
:101F7000862F413208F040E26FE874E047D01092BB
:101F80008E0480938D04089521E0F2CF81E0809348
:101F9000690460938C0410926B0410926A04089593
:101FA000F5CF0F93062F21E040916A046CE674E0B0
:101FB00080918C046FD010926B0410926A0410927E
:101FC00069040F91089561E0ECCF8DE594E0B7CFFF
:101FD00010921C0581E080931A051092190561E0AA
:101FE00084E10E94EF1F61E085E10E94EF1FE9EBB1
:101FF000F0E080818E7F808380818D7F808388E484
:102000008093B80085E48093BC000895413208F0C5
:102010003FC090911C059111FCCF91E090931C055D
:1020200020931A052FEF2093AF041092F404240F8D
:102030002093F30490931B0590911B05880F892B27
:1020400080931B0580911905813041F41092190588
:1020500080911B058093BB0085EC01C085EE8093C9
:10206000BC0080911C058130E1F38091F404841759
:1020700010F44091F40425EF34E0FB01D9018A2FDC
:10208000821B841718F48D918193F9CF842F0895C2
:1020900080E008950F93413208F046C090911C05EE
:1020A0009111FCCF92E090931C0500931A059FEFCD
:1020B0009093AF041092F4044093F304FB0165EF96
:1020C00074E0DB019A2F961B941718F491919D935D
:1020D000F9CF10921B0590911B05880F892B8093D7
:1020E0001B0580911905813041F4109219058091EA
:1020F0001B058093BB0085EC01C085EE8093BC007E
:10210000222321F080911C058230E1F38091AF04FD
:102110008F3F61F08091AF04803251F08091AF0425
:10212000803341F483E007C081E005C080E003C054
:1021300082E001C084E00F910895613298F420910B
:102140001C05243089F46093D104FC0183ED94E0F4
:10215000DC012A2F281B261718F421912D93F9CF83
:1021600080E0089581E0089582E0089585ED8093F0
:10217000BC008091BC0084FDFCCF10921C0508952A
:1021800085EC8093BC0010921C0508951F920F925D
:102190000FB60F9211240BB60F922F933F934F93CC
:1021A0005F936F937F938F939F93AF93BF93EF93BF
:1021B000FF938091B900887F803609F49CC068F550
:1021C000883209F45BC090F4803109F454C038F4CB
:1021D000882309F4F3C0883009F44DC0F2C0883177
:1021E00009F44CC0803209F45DC0EBC0803409F4BE
:1021F00068C048F4803309F455C0883309F0E1C061
:102200008093AF04A7C0803509F44FC0883509F426
:102210005DC0883409F0D5C0D3C0883909F4C4C082
:10222000A8F4883709F467C038F4883609F463C025
:10223000803709F460C0C5C0883809F4B5C080395A
:1022400009F45FC0803809F0BCC05BC0803B09F472
:1022500083C038F4803A09F466C0883A09F47CC037
:10226000B0C0803C09F4A4C0883C09F4A1C0883BFC
:1022700009F487C0A6C080911B0510C09091F4049A
:102280008091F304981770F5E091F40481E08E0FCB
:102290008093F404F0E0EB50FB4F80818093BB000F
:1022A00085EC83C08093AF048BC0E091F40481E09F
:1022B0008E0F8093F4048091BB00F0E0EB50FB4F55
:1022C00080839091F4048091F3046BC0E091F40456
:1022D00081E08E0F8093F4048091BB00F0E0EB501E
:1022E000FB4F808380911A0581116AC081E0809341
:1022F000190584EA5EC083E080931C051092B00447
:10230000CFCF8091B004803208F04EC0E091B0048D
:1023100081E08E0F8093B0048091BB00F0E0EF5419
:10232000FB4F8083BDCF8091B004803230F4E091C8
:10233000B004F0E0EF54FB4F108218DF6091B0045E
:1023400070E0E0911505F091160581EB94E0199588
:102350001092B00415DF35C084E080931C05109204
:10236000D2041092D104E0911705F0911805199547
:102370008091D104811105C081E08093D104109235
:10238000D304E091D20481E08E0F8093D204F0E078
:10239000ED52FB4F80818093BB009091D2048091DD
:1023A000D104981708F47CCF85E88093BC0009C05D
:1023B00085EC8093BC0010921C0503C01092AF0402
:1023C000D5DEFF91EF91BF91AF919F918F917F915A
:1023D0006F915F914F913F912F910F900BBE0F9096
:1023E0000FBE0F901F901895982F92959F708F7029
:1023F0002AE0929F800D112408958DE594E0AFCDE1
:102400001F93CF93DF93EC0168E670E08DE594E0D5
:10241000C7DD60E08DE594E064DD8DE594E0D3DD1B
:10242000882319F010921D053CC081E080931D05A2
:1024300047E050E068E670E08DE594E0A5DD8DE5CD
:1024400094E0F8DC07976CF18DE594E0FBDC182F45
:102450008F77CADF88838DE594E0F4DCC5DF89835C
:102460008DE594E0EFDC8F73BFDF8A838DE594E028
:10247000E9DCBADF8B838DE594E0E4DCB5DF8C83A7
:102480008DE594E0DFDCB0DF8D838DE594E0DADC70
:10249000ABDF825E8E83812F8095881F8827881FFF
:1024A00001C080E0DF91CF911F910895CF93DF931A
:1024B000CDB7DEB727970FB6F894DEBF0FBECDBFFE
:1024C000CE0101969DDF882321F0CE01019615DB18
:1024D00003C060E070E0CB0127960FB6F894DEBF32
:1024E0000FBECDBFDF91CF910895FB0180E06CE876
:1024F000415088F0519198E0752F7827282F30E0CF
:1025000035952795822F70FF02C0862F822756951A
:10251000915091F7EDCF08958F929F92AF92BF9215
:10252000CF92DF92EF92FF920F931F93CF93DF939F
:10253000CDB7DEB766970FB6F894DEBF0FBECDBF3E
:102540008C015B018BE0849F6001859FD00C11247E
:102550004E0187E1880E911CFE013C967F01CE1A48
:10256000DF0AC60102966C01C6018E0D9F1D0E94F6
:10257000E328F70181937F01E815F905A9F78BE0BE
:10258000FE013C96DE01119601900D928A95E1F7CD
:10259000FB841B864BE0BE016F5F7F4FC501A5DF4B
:1025A000F816E9F060E173E08BE895E00E94942270
:1025B0008BE0F80111928A95E9F74CE55FEF69E746
:1025C00074E4F801408351836283738344835583A9
:1025D000668377838FEF90E09187808708C08BE0D8
:1025E000FE013C96D80101900D928A95E1F7C80151
:1025F00066960FB6F894DEBF0FBECDBFDF91CF91C8
:102600001F910F91FF90EF90DF90CF90BF90AF9010
:102610009F908F900895CF92DF92EF92FF920F9349
:102620001F93CF93DF93CDB7DEB72B970FB6F894F8
:10263000DEBF0FBECDBF7C0181E090E00E94E328A9
:10264000F701E155FF4F90E09183808340E050E037
:10265000B701CE01019660DFC980DA80EB80FC8093
:1026600009851A852DEC3CE044EE53E46D817E81B2
:102670008F8198850E942A2481110EC020E030E0CD
:1026800046EF52E4C701B6010E942A24811104C01A
:1026900081E00431110509F080E02B960FB6F89423
:1026A000DEBF0FBECDBFDF91CF911F910F91FF9085
:1026B000EF90DF90CF900895EF92FF920F931F93CA
:1026C000CF93DF93CDB7DEB72B970FB6F894DEBF6D
:1026D0000FBECDBF8C017B014CD4F801E355FF4FF9
:1026E000F182E08240EC52E160E070E08EE195E042
:1026F00088D3780181EBE80EF11C8BE0F701119291
:102700008A95E9F780E090E0A6EFB2E4F7018083D4
:102710009183A283B38334964DEC5CE064EE73E462
:102720004083518362837383349684E190E0918384
:10273000808341E050E0B801CE010196EDDE8BE0F0
:10274000FE013196D70101900D928A95E1F7C801FB
:102750002B960FB6F894DEBF0FBECDBFDF91CF91A1
:102760001F910F91FF90EF9056CFEF92FF920F9332
:102770001F93CF93DF937C018B01C0E0D0E0F80181
:1027800061918F01CE018E0D9F1D0E94EB28219635
:10279000CB30D105A1F78BE090E0DF91CF911F9175
:1027A0000F91FF90EF9008952BE0249FC001259F8B
:1027B000900D11240296D9CFCF92DF92EF92FF9223
:1027C0000F931F93CF93DF93CDB7DEB72B970FB641
:1027D000F894DEBF0FBECDBF7C0101E010E06C01BC
:1027E0008FEAC80ED11CF6016081718106171707A8
:1027F00084F4A801B701CE0101968EDEA8014150F4
:102800005109BE016F5F7F4FC701CEDF0F5F1F4FC2
:10281000EACF615071097183608381E090E00E948A
:10282000EB282B960FB6F894DEBF0FBECDBFDF911D
:10283000CF911F910F91FF90EF90DF90CF9008956F
:102840002F923F924F925F926F927F928F929F92C0
:10285000AF92BF92CF92DF92EF92FF920F931F93AE
:10286000CF93DF93CDB7DEB765970FB6F894DEBF91
:102870000FBECDBF4C018B549F4F9D878C87FC01B1
:10288000A080B180C280D3801401F1EB2F0E311CE7
:10289000F1014080518062807380C401EAD69B01BF
:1028A000AC01C4012A8B3B8B4C8B5D8BB6D683016C
:1028B00072012A893B894C895D89E2D420E030E0AD
:1028C00048EC52E40E9431242B013C01F401E7540E
:1028D000FF4F60817181882777FD8095982F0E9436
:1028E000CC249B01AC01C301B2010E942A2487FFC2
:1028F00010C0C40161DF41E050E0B401CE01019697
:102900000BDE8BE0FE013196D10101900D928A958C
:10291000E1F7F401E45BFF4F1182668177818085E6
:1029200091850E94CC2420E030E048EC52E40E94E3
:1029300031246E877F87888B998BEC85FD85A080FD
:10294000B180C280D380F101408051806280738069
:10295000C4018FD69B01AC01C4012A8B3B8B4C8BED
:102960005D8B5BD6830172012A893B894C895D8925
:102970006ED520E030E044EB53E40E9464232E85C2
:102980003F85488959890E9463230E949924CB017D
:1029900068E671E00E94D426853B910514F08856C4
:1029A000914065960FB6F894DEBF0FBECDBFDF91A4
:1029B000CF911F910F91FF90EF90DF90CF90BF903C
:1029C000AF909F908F907F906F905F904F903F90CF
:1029D0002F90089520E04EE06FE08EE195E0E3C196
:1029E0008EE195E088C1CF93DF93EC0161E088E14F
:1029F0000E94EF1F8EE195E09CD01816190644F452
:102A00008EE195E009D0682FCE010E94861DF2CF9D
:102A10008881DF91CF91089520917F0530918005C5
:102A200028173907B9F490913D0580913E05981714
:102A300089F0E0913D05F0E0E15CFA4F8081209162
:102A40003D0530E02F5F3F4F2F73332720933D0527
:102A500090E008958FEF9FEF08951F93CF93DF933A
:102A6000DC015C968D919C915D97009749F481E023
:102A700090E013969C938E93129780E090E03BC079
:102A80005196ED91FC91529750962C915097322F80
:102A900030951FB75E964C915E9741FB772770F992
:102AA00041FD6095F8944081772311F0422B01C0DD
:102AB00043234083EC012197F1F748E0508160FF08
:102AC00002C0522B01C053235083EC012197F1F730
:102AD0006695415099F78081772311F0832301C0D7
:102AE000822B80831FBF5C968D919C915D9701978F
:102AF000F1F781E090E0DF91CF911F91089520914F
:102B00007F05309180052817390781F490913D05A4
:102B100080913E05981751F0E0913D05F0E0E15CB1
:102B2000FA4F8081992787FD909508958FEF9FEF49
:102B3000089520917F05309180052817390769F4A1
:102B400080913E0520913D0590E0805C9F4F821B67
:102B5000910960E470E00C94D42680E090E0089540
:102B600020917F05309180052817390739F48FB7F8
:102B7000F89410923E0510923D058FBF0895E091A4
:102B80007F05F0918005E817F90769F4A389B489F6
:102B90009C918589809589238C9310928005109251
:102BA0007F0581E0089580E00895CF93DF93EC01E5
:102BB0008A8D9B8D892BE9F080917F05909180050E
:102BC0008C179D07B1F0009709F0D9DF8E8D8E7FAD
:102BD0008E8F10923E0510923D05D0938005C093D4
:102BE0007F05EB89FC8980819D89892B808381E029
:102BF00001C080E0DF91CF9108951F920F920FB630
:102C00000F9211240BB60F922F933F934F935F9324
:102C10006F937F938F939F93AF93BF93EF93FF93A4
:102C2000E0917F05F0918005309709F451C0868DC1
:102C3000A685B785958581FF04C08C91892329F4E9
:102C400047C08C91892309F043C0A389B4899C9122
:102C50008589809589238C93868997890197F1F7D7
:102C6000208D318DA685B785758558E040E0C90176
:102C70000197F1F7842F90E095958795482F6C91F7
:102C8000672309F04068515091F7868D81FD40958A
:102C900080913E0590E001968F73992720913D0524
:102CA000281749F0A0913E05B0E0A15CBA4F4C93C3
:102CB00080933E0503C0868D8160868F828D938DC3
:102CC0000197F1F7A389B4898C919589892B8C930D
:102CD000FF91EF91BF91AF919F918F917F916F91F4
:102CE0005F914F913F912F910F900BBE0F900FBEB0
:102CF0000F901F90189524E233E0FC01318320836C
:102D00003ECF1F93CF93DF93EC01162F6E8D669508
:102D1000617081E06827812F0E94EF1F61E0812FA1
:102D20000E94B61F812F90E0FC01E451FD4FE49119
:102D3000E88BFC01EE5CFC4FE491F0E0EE0FFF1F2E
:102D4000EE56FC4F859194919A8B898BDF91CF91B0
:102D50001F9108951F93CF93DF93EC01162F60E02E
:102D6000812F0E94B61F8E8D81FD04C061E0812FEE
:102D70000E94EF1F1C87812F90E0FC01E451FD4F62
:102D8000E491ED87FC01EE5CFC4FE491F0E0EE0F86
:102D9000FF1FE858FC4F859194919F878E87DF91A4
:102DA000CF911F910895FF920F931F93CF93DF93BD
:102DB000EC01F62E522F1B821A8208EE13E020E05F
:102DC00030E00C831D832E833F8384E293E099835C
:102DD00088831F8A1E8A198E188E1B8E1A8E1D8E4E
:102DE0001C8E8E8D8E7F50FB81F98E8F642FCE01CD
:102DF00088DF6F2DCE01DF91CF911F910F91FF9052
:102E0000A9CF0F931F93CF93DF93EC019A01AB01EE
:102E10001B8E1A8E198E188E1F8A1E8A60E079E02A
:102E20008DE390E00E940927C9012430310520F08C
:102E3000B9016350710902C061E070E07D8F6C8F51
:102E40001C8506EF010F043048F06EEC610F643012
:102E500028F062EC610F683008F07DC0B90176950A
:102E600067956431710518F06351710902C061E022
:102E700070E07F8B6E8B069718F0C901059702C032
:102E800081E090E0998F888FC901880F991F820F88
:102E9000931F96958795969587958D30910510F09F
:102EA0000C9702C081E090E09B8F8A8F043060F025
:102EB0008EEC810F843040F082EC810F883008F076
:102EC00050C0A8E6B0E04FC0A8E6B0E0E8E6F0E009
:102ED0009081043028F01E53183010F484E001C0B3
:102EE00081E0892B8C932C8536EF320F343058F0EB
:102EF0008EEC820F843038F082EC820F883030F410
:102F00008DE690E005C08BE690E002C080E090E0A6
:102F10009C8B8B8B343010F426500BC0223379F00D
:102F2000233379F0243379F082EC820F883068F40F
:102F3000282F81E001C0880F2A95EAF707C088E0B2
:102F400005C084E003C082E001C081E08D8B8C8DE0
:102F50009D8D0197F1F7CE01DF91CF911F910F91D8
:102F600024CEA0E0B0E0883008F4B0CFE0E0F0E09C
:102F7000AFCFFC011082118213821282148215825B
:102F8000168217821086128611861386148615867D
:102F900016861786118A108A128A138A148A158A4D
:102FA000168A108E178A118E128E138E148E158E1D
:102FB00012A213A214A215A216A217A210AA11AA55
:102FC00012AA13AA14AA15AA16AE17AEDC01AC5B9E
:102FD000BF4F1D921D921D921C92139718961C9222
:102FE00011961C92119716961D921D921D921C927D
:102FF00019971E961C9211961C92119716961D9267
:103000001D921D921C9219971E961C9211961C924D
:10301000119716961D921D921D921C9219971E963D
:103020001C9211961C92119716961D921D921D923C
:103030001C9219971E961C9211961C92509682E033
:103040008C9311961C9211961C9211961C921196BB
:1030500011961C921E92129611961C921E92129616
:103060001D921D921D921C92139714961D921D92F3
:103070001D921C92139714961D921D921D921C92E4
:10308000139714961D921D921D921C921397EA5746
:10309000FF4F108208952FEB260F862F992787FD6B
:1030A0009095263010F4C79708956156663018F44D
:1030B000875591090895C0970895FF920F931F9324
:1030C000CF93DF93EC01FF24F39488818D3211F0CC
:1030D000F12C01C02196CE010E9489289B01AC01F0
:1030E000A4E6B0E00E943A27FE014991242F33273D
:1030F00027FD3095205331092A303105A8F34E328F
:1031000041F52181332727FD3095205331092A309D
:103110003105F8F44AE0429F8001439F100D1124CD
:10312000222717FD2095322F600F711F821F931FDA
:103130000281112707FD1095005311090A3011056E
:1031400040F4222717FD2095322F600F711F821F38
:10315000931FFF2039F090958095709561957F4F72
:103160008F4F9F4FDF91CF911F910F91FF90089547
:103170002F923F924F925F926F927F928F929F9287
:10318000AF92BF92CF92DF92EF92FF920F931F9375
:10319000CF93DF93D82FC92F8B010E94892824E673
:1031A00030E040E050E00E94E72649015A019B01CF
:1031B000AC0160E876E988E990E00E94B9266B01ED
:1031C0007C01F80191828082ED2FFC2F2191822FCA
:1031D000992787FD9095C0970A97C0F32E3239F54D
:1031E0001F0180E8882E86E9982E88E9A82EB12C48
:1031F0009AE0492E512C612C712CF101C1911F01D3
:10320000DD27C7FDD095E097CA30D10580F4C50110
:10321000B401A30192010E94E72649015A01DE018F
:103220000E944427C60ED71EE81EF91EE6CFA5E071
:10323000B0E0A70196010E943A276F5F7F4F8F4F42
:103240009F4F23E030E040E050E00E94E726F80185
:1032500022833383448355831682DF91CF911F915C
:103260000F91FF90EF90DF90CF90BF90AF909F9025
:103270008F907F906F905F904F903F902F90089528
:103280004F925F926F927F928F929F92AF92BF9276
:10329000CF92DF92EF92FF920F931F93CF93DF9322
:1032A000CDB7DEB760970FB6F894DEBF0FBECDBFC7
:1032B00069837A838B839C83CA01B9012701380112
:1032C000A60195010E94632325E33AEF4EE85CE3F3
:1032D0000E94E5256B017C010E9448266D877E8750
:1032E0008F87988BC701B6010E942E246D837E8341
:1032F0008F83988725E33AEF4EE85CE369817A8112
:103300008B819C810E94E5256B017C0125E33AEFCE
:103310004EE85CE3C301B2010E94E5252B013C01AC
:10332000C701B6010E9448264B015C01C701B601E6
:103330000E942E2469837A838B839C83C301B2010C
:103340000E94482669877A878B879C87C301B201D0
:103350000E942E246B017C0129853A854B855C8572
:1033600069817A818B819C810E94E5252B013C013A
:10337000A7019601C501B4010E94E5252D813E817A
:103380004F8158850E94E5259B01AC01C301B20124
:103390000E9463239B01AC010E94E5252B013C01A7
:1033A0002D853E854F855889C701B6010E94E525C8
:1033B0009B01AC010E94E5259B01AC01C301B20158
:1033C0000E9464230E9452262B013C0129853A85E4
:1033D0004B855C85C501B4010E94E5254B015C016C
:1033E000A701960169817A818B819C810E94E525E4
:1033F0002D813E814F8158850E94E5259B01AC01BE
:10340000C501B4010E9464239B01AC01C301B20158
:103410000E94D72326E73BE742EC5AE40E94E525C9
:1034200060960FB6F894DEBF0FBECDBFDF91CF918F
:103430001F910F91FF90EF90DF90CF90BF90AF90D2
:103440009F908F907F906F905F904F9008954F92D4
:103450005F926F927F928F929F92AF92BF92CF9224
:10346000DF92EF92FF920F931F93CF93DF93CDB72D
:10347000DEB72C970FB6F894DEBF0FBECDBF6983C1
:103480007A838B839C83ED82FE820F831887C6012B
:10349000B5010E94632325E33AEF4EE85CE30E9406
:1034A000E5252B013C0125E33AEF4EE85CE3698119
:1034B0007A818B819C810E94E5254B015C0125E38B
:1034C0003AEF4EE85CE3C801B7010E94E5256B01C5
:1034D0007C01C301B2010E9448266D837E838F83E5
:1034E0009887C701B6010E942E2469837A838B8353
:1034F0009C83C501B4010E94482669877A878B871F
:103500009C87C301B2010E942E242B013C0129811A
:103510003A814B815C8169857A858B859C850E9487
:10352000E525A30192010E94E5252B013C01C5017F
:10353000B4010E942E244B015C01C701B6010E9418
:1035400048269B01AC01C501B4010E94E525A301F9
:1035500092010E9463236B017C0129813A814B8196
:103560005C816D817E818F8198850E94E525A70110
:1035700096010E94D7236B017C0120E030E0A90175
:103580000E942A2487FF0AC02BED3FE049EC50E45B
:10359000C701B6010E9464236B017C0121EE3EE26B
:1035A00045E652E4C701B6010E94E5252C960FB608
:1035B000F894DEBF0FBECDBFDF91CF911F910F9169
:1035C000FF90EF90DF90CF90BF90AF909F908F9043
:1035D0007F906F905F904F900895CF93DF93EC01B1
:1035E00087E0FE017096DE01129601900D928A9599
:1035F000E1F787E0FE017796DE01199601900D92C2
:103600008A95E1F79FD36E8F7F8F88A399A381E07E
:1036100089838883DF91CF910895CF92DF92EF92D3
:10362000FF92CF93DF93EC0119826A817B8180E066
:1036300090E00E94CA246B017C016C817D818E81A7
:103640009F810E94CA2428E23BE64EE65EE40E9487
:1036500031249B01AC01C701B6010E946423288577
:1036600021119058DF91CF91FF90EF90DF90CF9094
:103670000895CF92DF92EF92FF92CF93DF93EC0108
:10368000198269857A8580E090E00E94CA246B01E6
:103690007C016B857C858D859E850E94CA2428E2ED
:1036A0003BE64EE65EE40E9431249B01AC01C7017B
:1036B000B6010E9464232F8521119058DF91CF918C
:1036C000FF90EF90DF90CF900895CF93DF93EC01C0
:1036D0004E815F81688579854A835B836C837D83B6
:1036E00031D36A877B878C879D8781E08983888334
:1036F000DF91CF910895CF93DF93EC014E815F81ED
:10370000688579854A835B836C837D831BD36A8755
:103710007B878C879D8781E089838883DF91CF9128
:103720000895CF93DF93EC01CB01C7DC6E837F83D9
:1037300088879987DF91CF910895CF93DF93EC012C
:10374000CB010E9489286E837F8388879987DF91C8
:10375000CF910895CF93DF93EC014A855B856C850B
:103760007D854E835F8368877987ECD26A837B830C
:103770008C839D8381E089838883DF91CF91089535
:10378000CF93DF93EC01CB0198DC6A877B878C8732
:103790009D87DF91CF910895CF93DF93EC014A8508
:1037A0005B856C857D854E835F8368877987CAD208
:1037B0006A837B838C839D8381E089838883DF9107
:1037C000CF910895CF93DF93EC01CB010E9489281C
:1037D0006A877B878C879D87DF91CF910895CF93F0
:1037E000DF93EC01BC0140960E94B828ABD268A3DD
:1037F00079A38AA39BA381E08DA38CA3DF91CF91B2
:10380000089540E150E00C94BF28AF92BF92CF9250
:10381000DF92FF920F931F93CF93DF93EC01FC0194
:10382000EB57FF4FF080FF2009F490C03196608184
:1038300032DC182FFE01E957FF4F6081CE012BDCEF
:1038400040E1149F800D1124FE01EC57FF4F908141
:1038500089136CC0B59640815181628173814F5F3D
:103860005F4F6F4F7F4F40835183628373838E011D
:1038700008561F4FD8018C91882369F038974081F2
:103880005181628173814F5F5F4F6F4F7F4F4083E4
:10389000518362837383FE01EB56FF4F808188233F
:1038A000A9F0813041F5CE0182960FDFCE01C0969E
:1038B00022DFF80180818823F1F0CE018EDECE0177
:1038C000CE9648DFCE01845B9F4F14C0CE01C096D8
:1038D00012DFD8018C91882331F0CE017EDECE013B
:1038E000865A9F4F37DFCE0188599F4F55DFCE0153
:1038F0008A589F4F2FDF8E0105561F4FF801C08158
:10390000D181209709F4F7C0D801ED91FC9166A10F
:1039100077A18EA19FA10E94AF28892B09F0EBC04F
:10392000CE015DDF0AA4DBA5C02DEBCFCB55DF4F69
:10393000488159816A817B814F5F5F4F6F4F7F4F15
:10394000488359836A837B83F12CD5C06C01B6E927
:10395000CB0ED11CF60130818B569F4F5C018E013E
:1039600005561F4F311134C06E0196E8C90ED11CA7
:1039700060E373E0C6010E94AF28892B11F481E057
:103980000BC066E373E0C6010E94AF28892B19F4CF
:10399000F501108203C082E0D5018C93C756DF4F3A
:1039A00088819981F80191838083F801C081D18158
:1039B000209709F4A0C0B6018EA19FA10E94AF2854
:1039C00097FF94C08AA59BA5D8018D939C93EDCFBA
:1039D000DC01EC91E23009F45EC0CE018A579F4FC2
:1039E000DC012C91222309F456C0B0E2EB9FF001D8
:1039F0001124E32B3197E932F10508F04CC0EE5861
:103A0000FF4F0C942527BC01CE01C0968ADE43C02F
:103A1000FE01E856FF4F81E0213451F52AC0BE0176
:103A2000605F7F4F09C081E0233509F080E08E8B15
:103A300032C0BE01695E7F4F9BDB2DC081E0273520
:103A400009F080E08D8F27C0BC01CE01CE9622C048
:103A5000BC01CE01845B9F4F1DC0BC01CE0182968C
:103A60006CDE19C0FE01E856FF4F81E021330CF4F3
:103A700080E0808310C0BC01CE0188599F4FA2DE38
:103A80000AC0BC01CE018A589F4F04C0BC01CE01C0
:103A9000865A9F4F75DEF801A080B180CA57DF4F6C
:103AA000A114B10441F1D801ED91FC9166A177A177
:103AB000F50186A197A10E94AF28892BE1F4D501D9
:103AC00098962D913C919997F601808190E082170C
:103AD00093078CF02817390719F4BE01C50191DE50
:103AE000D5019A96AD90BC909B97DACF892B19F0AF
:103AF000D8011D921C928F2DDF91CF911F910F91B4
:103B0000FF90DF90CF90BF90AF900895CF92DF925B
:103B1000EF92FF920F931F93CF93DF931F92CDB736
:103B2000DEB76C01262FFC01E356FF4F4081518127
:103B3000628173814F5F5F4F6F4F7F4F408351832F
:103B4000628373838C0109561F4F8B579F4F7C01F3
:103B5000243271F12CF42A3069F02D30D9F50AC0E5
:103B60002A3241F02C32B1F5F601EC57FF4F80813B
:103B700082278083F80180818F3058F4F601E80FA6
:103B8000F11DEA57FF4F1082C60129833EDE2981CD
:103B900001C080E0F601EA56FF4F90819F5F90835D
:103BA000F801108291E02A3209F090E0F70128C074
:103BB000F8011082F601EA56FF4F108272971082C8
:103BC000719682E08083F7011082F601E856FF4F7C
:103BD000108218C0F80180818E3048F491E0980F6F
:103BE0009083F601E80FF11DEA57FF4F2083F7019C
:103BF0008081811107C0F601EC57FF4F9081922719
:103C0000908301C080E00F90DF91CF911F910F91C1
:103C1000FF90EF90DF90CF9008954115510529F462
:103C200080917A008F7780937A006A307105B1F0C5
:103C300063FF02C088E201C088E06770682B88E1FA
:103C400090E00FB6F894A895809360000FBE609343
:103C500060008091600080648093600083B7817F02
:103C6000846083BFF89483B7816083BF789488951C
:103C700083B78E7F83BF7894452B29F480917A0097
:103C8000806880937A0008951F920F920FB60F926A
:103C900011248F9388E10FB6F894809360001092FE
:103CA00060000FBE8F910F900FBE0F901F90189560
:103CB0001F920F920FB60F9211242F933F938F9361
:103CC0009F93AF93BF938091830590918405A091BA
:103CD0008505B09186053091820523E0230F2D37AD
:103CE00020F40196A11DB11D05C026E8230F029600
:103CF000A11DB11D209382058093830590938405B7
:103D0000A0938505B09386058091870590918805DD
:103D1000A0918905B0918A050196A11DB11D8093DE
:103D2000870590938805A0938905B0938A05BF9174
:103D3000AF919F918F913F912F910F900FBE0F9058
:103D40001F9018952FB7F8946091830570918405A2
:103D500080918505909186052FBF08953FB7F8940F
:103D60008091870590918805A0918905B0918A0579
:103D700026B5A89B05C02F3F19F00196A11DB11DC6
:103D80003FBF6627782F892F9A2F620F711D811DE3
:103D9000911D42E0660F771F881F991F4A95D1F742
:103DA0000895CF92DF92EF92FF92CF93DF936B0152
:103DB0007C01D4DFEB01C114D104E104F10479F0FA
:103DC00081D4CCDF6C1B7D0B683E7340A0F381E097
:103DD000C81AD108E108F108C851DC4FECCFDF91D7
:103DE000CF91FF90EF90DF90CF90089582309105B2
:103DF00038F0880F991F880F991F05970197F1F7E1
:103E00000895789484B5826084BD84B5816084BD52
:103E100085B5826085BD85B5816085BDEEE6F0E043
:103E2000808181608083E1E8F0E01082808182609F
:103E30008083808181608083E0E8F0E08081816020
:103E40008083E1EBF0E0808184608083E0EBF0E050
:103E5000808181608083E1E9F0E0808182608083FD
:103E6000808181608083E0E9F0E0808181608083EF
:103E7000E1EAF0E0808182608083808181608083DC
:103E8000E0EAF0E0808181608083E1E2F1E080811E
:103E900082608083808181608083E0E2F1E08081C4
:103EA00081608083EAE7F0E08081846080838081A4
:103EB000826080838081816080838081806880834C
:103EC0001092C100089590E0FC013197E231F105B4
:103ED00008F04BC0E556FF4FB8C7809180008F7740
:103EE00003C0809180008F7D809380000895809131
:103EF0008000877FF9CF84B58F7702C084B58F7D2E
:103F000084BD08958091B0008F7703C08091B00088
:103F10008F7D8093B0000895809190008F7707C0C7
:103F2000809190008F7D03C080919000877F809367
:103F3000900008958091A0008F7707C08091A00025
:103F40008F7D03C08091A000877F8093A00008959B
:103F5000809120018F7707C0809120018F7D03C061
:103F600080912001877F809320010895CF93DF9374
:103F700090E0FC01E451FD4F2491FC01EE5CFC4F0C
:103F80008491882349F190E0880F991FFC01E45542
:103F9000FC4FA591B4918E569C4FFC01C591D491D4
:103FA0009FB7611108C0F8948C91209582238C935F
:103FB000888182230AC0623051F4F8948C91322FA8
:103FC000309583238C938881822B888304C0F89456
:103FD0008C91822B8C939FBFDF91CF9108950F938B
:103FE0001F93CF93DF931F92CDB7DEB7282F30E01A
:103FF000F901EA55FD4F8491F901E451FD4F149107
:10400000F901EE5CFC4F04910023C1F0882319F004
:10401000698359DF6981E02FF0E0EE0FFF1FEE5654
:10402000FC4FA591B4919FB7F8948C91611103C096
:104030001095812301C0812B8C939FBF0F90DF913E
:10404000CF911F910F910895FC01818D228D90E0F9
:10405000805C9F4F821B91098F7399270895FC0103
:10406000918D828D981731F0828DE80FF11D858D2D
:1040700090E008958FEF9FEF0895FC01918D828D60
:10408000981761F0828DDF01A80FB11D5D968C91AC
:10409000928D9F5F9F73928F90E008958FEF9FEFB7
:1040A000089582EF91E2892B39F080E090E0892B2E
:1040B00019F098D1811125C080E090E0892B41F062
:1040C00080E090E0892B21F00E94000081111CC04B
:1040D00080E090E0892B41F080E090E0892B21F096
:1040E0000E940000811113C080E090E0892BA1F0B4
:1040F00080E090E0892B81F00E94000081110AC0CD
:1041000008950E940000D8CF0E940000E1CF0E94D5
:104110000000EACF0C9400000895FC01848DDF01BB
:10412000A80FB11DA35ABF4F2C91848D90E001962A
:104130008F739927848FA689B7892C93A089B18919
:104140008C9180648C93938D848D981306C0028823
:10415000F389E02D80818F7D80830895CF93DF9355
:10416000EC01888D8823C1F0EA89FB89808185FD77
:1041700005C0A889B9898C9186FD0EC00FB607FCD1
:10418000F5CF808185FFF2CFA889B9898C9185FF11
:10419000EDCFCE01C2DFE8CFDF91CF910895CF926E
:1041A000DF92FF920F931F93CF93DF931F92CDB7B0
:1041B000DEB76C0181E0D60158968C9358975B96D8
:1041C0009C915B975C968C915C97981307C0509676
:1041D000ED91FC915197808185FD2DC0F601038DF5
:1041E00010E00F5F1F4F0F731127F02EF601848D23
:1041F000F81210C00FB607FCF9CFD6015096ED911A
:10420000FC915197808185FFF1CFC601698385DFDD
:104210006981ECCF838DE80FF11DE35AFF4F608376
:10422000D6015B960C935B975296ED91FC91539758
:10423000808180620CC0D6015696ED91FC91579713
:1042400060835096ED91FC915197808180648083CA
:1042500081E090E00F90DF91CF911F910F91FF903F
:10426000DF90CF900895BF92CF92DF92EF92FF92AE
:10427000CF93DF93EC016A017B01B22EE889F989C3
:1042800082E08083411581EE58076105710599F040
:1042900060E079E08DE390E0A701960198D5215088
:1042A00031094109510956954795379527952115AB
:1042B00080E1380790F0E889F989108260E874E8B5
:1042C0008EE190E0A701960182D521503109410984
:1042D00051095695479537952795EC85FD8530838F
:1042E000EE85FF852083188EEC89FD89B082EA89EE
:1042F000FB89808180618083EA89FB898081886075
:104300008083EA89FB89808180688083EA89FB89D0
:1043100080818F7D8083DF91CF91FF90EF90DF9040
:10432000CF90BF9008951F920F920FB60F92112455
:104330000BB60F922F938F939F93EF93FF93E09180
:104340009B05F0919C058081E091A105F091A2056B
:1043500082FD12C090818091A4058F5F8F732091A0
:10436000A505821751F0E091A405F0E0E557FA4F5A
:10437000958F8093A40501C08081FF91EF919F915B
:104380008F912F910F900BBE0F900FBE0F901F902B
:1043900018951F920F920FB60F9211240BB60F9221
:1043A0002F933F934F935F936F937F938F939F933D
:1043B000AF93BF93EF93FF938BE895E0AEDEFF9151
:1043C000EF91BF91AF919F918F917F916F915F918D
:1043D0004F913F912F910F900BBE0F900FBE0F90FA
:1043E0001F9018958BE895E02FDE21E0892B09F4CA
:1043F00020E0822F089510928E0510928D0588EE90
:1044000093E0A0E0B0E080938F0590939005A09397
:104410009105B093920584E693E090938C05809388
:104420008B0585EC90E0909398058093970584EC3C
:1044300090E090939A058093990580EC90E090939A
:104440009C0580939B0581EC90E090939E05809362
:104450009D0582EC90E09093A00580939F0586ECEB
:1044600090E09093A2058093A1051092A40510926C
:10447000A5051092A6051092A70508950895C1DC20
:10448000FDDF0E941B02C1E5D0E20E948802209756
:10449000E1F307DEFACF16C5CF92DF92EF92FF92DB
:1044A0000F931F93CF93DF936C017A01EB01E60E1C
:1044B000F71E00E010E0CE15DF0561F06991D6012E
:1044C000ED91FC910190F081E02DC6011995080F46
:1044D000191FF1CFC801DF91CF911F910F91FF906C
:1044E000EF90DF90CF9008956115710581F0DB01A9
:1044F0000D900020E9F7AD0141505109461B570BC3
:10450000DC01ED91FC910280F381E02D199480E0B3
:1045100090E00895DC01ED91FC910190F081E02D97
:10452000199460E773E0E0CF0F931F93CF93DF936D
:10453000EC01DADF8C01CE01F4DF800F911FDF91F7
:10454000CF911F910F9108958F929F92AF92BF923A
:10455000CF92DF92EF92FF920F931F93CF93DF934F
:10456000CDB7DEB7A1970FB6F894DEBF0FBECDBFB3
:104570007C01C42EE52FCB01D22E19A221E02D15EE
:1045800010F02AE0D22E8E010F5D1F4F8D2C912C42
:10459000A12CB12C6C2D7E2FA501940118D48C2D4B
:1045A000D29E80191124015011098A3014F4805DC3
:1045B00001C0895CF8018083211531054105510551
:1045C00021F0C22EE32FCA01E5CFB801C7018CDF6D
:1045D000A1960FB6F894DEBF0FBECDBFDF91CF918D
:1045E0001F910F91FF90EF90DF90CF90BF90AF9011
:1045F0009F908F9008952115310541F4DC01ED91D4
:10460000FC910190F081E02D642F19949DCF9A01C7
:10461000462F50E060E070E0EECF0F931F93CF93F2
:10462000DF93EC01E8DF8C01CE017BDF800F911F6F
:10463000DF91CF911F910F9108954F925F926F92EA
:104640007F92AF92BF92CF92DF92EF92FF920F9341
:104650001F93CF93DF93CDB7DEB729013A01621BD9
:10466000730B840B950B2A893B894C895D892A1928
:104670003B094C095D092A8B3B8B4C8B5D8B9B0165
:10468000AC016A897B898C899D8973D3E418F5080C
:1046900006091709A8019701BCD32A0D3B1D4C1D23
:1046A0005D1DCA01B901DF91CF911F910F91FF905C
:1046B000EF90DF90CF90BF90AF907F906F905F9022
:1046C0004F90089508955058BB27AA270ED027C2AF
:1046D000F0D130F0F5D120F031F49F3F11F41EF409
:1046E000C0C10EF4E095E7FBB6C1E92F3AD280F3E2
:1046F000BA17620773078407950718F071F49EF5DF
:1047000052C20EF4E0950B2EBA2FA02D0B01B90169
:1047100090010C01CA01A0011124FF27591B99F037
:10472000593F50F4503E68F11A16F040A22F232F43
:10473000342F4427585FF3CF469537952795A79593
:10474000F0405395C9F77EF41F16BA0B620B730B3A
:10475000840BBAF09150A1F0FF0FBB1F661F771FAB
:10476000881FC2F70EC0BA0F621F731F841F48F460
:10477000879577956795B795F7959E3F08F0B3CFE6
:104780009395880F08F09927EE0F979587950895D0
:1047900090D158F080E891E009F49EEF91D128F093
:1047A00040E851E059F45EEF09C05BC1FCC1E92F5C
:1047B000E078D7D168F3092E052AC1F32617370709
:1047C0004807590738F00E2E07F8E02569F0E02574
:1047D000E0640AC0EF6307F8009407FADB01B9014F
:1047E0009D01DC01CA01AD01EF934AD098D10AD0F6
:1047F0005F91552331F02BED3FE049E450FD49EC4A
:1048000063CF0895DF93DD27B92FBF7740E85FE3DB
:104810001616170648075B0710F4D92FCFD19F93C0
:104820008F937F936F937CD2EAE5F1E01DD177D12E
:104830002F913F914F915F91D4D1DD2349F0905852
:10484000A2EA2AED3FE049EC5FE3D0785D274DDF37
:10485000DF9165C1DCD008F481E0089539D1E3959A
:104860006FC10CD05CC12CD140F023D130F021F4C9
:104870005F3F19F0F0C0511197C1F3C072D198F3A6
:104880009923C9F35523B1F3951B550BBB27AA27D1
:1048900062177307840738F09F5F5F4F220F331F43
:1048A000441FAA1FA9F333D00E2E3AF0E0E830D00F
:1048B00091505040E695001CCAF729D0FE2F27D012
:1048C000660F771F881FBB1F261737074807AB07E0
:1048D000B0E809F0BB0B802DBF01FF2793585F4F55
:1048E0002AF09E3F510568F0B6C05EC15F3FECF311
:1048F000983EDCF3869577956795B795F7959F5F1A
:10490000C9F7880F911D9695879597F90895E1E06D
:10491000660F771F881FBB1F621773078407BA07CC
:1049200020F0621B730B840BBA0BEE1F88F7E09527
:10493000089504D06894B11137C108951AD188F050
:104940009F5790F0B92F9927B751A0F0D1F0660F7B
:10495000771F881F991F1AF0BA95C9F712C0B13096
:1049600081F021D1B1E008951EC1672F782F8827EB
:10497000B85F39F0B93FCCF3869577956795B395D5
:10498000D9F73EF490958095709561957F4F8F4F44
:104990009F4F0895E89409C097FB3EF49095809549
:1049A000709561957F4F8F4F9F4F9923A9F0F92FF5
:1049B00096E9BB279395F695879577956795B79573
:1049C000F111F8CFFAF4BB0F11F460FF1BC06F5F59
:1049D0007F4F8F4F9F4F16C0882311F096E911C06B
:1049E000772321F09EE8872F762F05C0662371F08C
:1049F00096E8862F70E060E02AF09A95660F771FA0
:104A0000881FDAF7880F9695879597F90895990F7B
:104A10000008550FAA0BE0E8FEEF16161706E80788
:104A2000F907C0F012161306E407F50798F0621BA9
:104A3000730B840B950B39F40A2661F0232B242B7E
:104A4000252B21F408950A2609F4A140A6958FEF9D
:104A5000811D811D089597F99F6780E870E060E0EF
:104A600008959FEF80EC0895DF93CF931F930F93EA
:104A7000FF92EF92DF927B018C01689405C0DA2EE1
:104A8000EF01AFD0FE01E894A591259135914591B4
:104A90005591AEF3EF0129DEFE019701A801DA94EA
:104AA00079F7DF90EF90FF900F911F91CF91DF91F9
:104AB000089500240A941616170618060906089584
:104AC00000240A9412161306140605060895C9CF89
:104AD00050D0E8F3E894E0E0BB279F57F0F02AEDD0
:104AE0003FE049EC06C0EE0FBB0F661F771F881F23
:104AF00028F0B23A62077307840728F0B25A620BB3
:104B0000730B840BE3959A9572F7803830F49A957D
:104B1000BB0F661F771F881FD2F7904806C1092E6A
:104B20000394000C11F4882352F0BB0F40F4BF2B08
:104B300011F460FF04C06F5F7F4F8F4F9F4F089548
:104B4000EF93E0FF06C0A2EA2AED3FE049EC5FEBFD
:104B5000CCDDE5DF0F90039401FC9058E7E8F1E02D
:104B6000F7C057FD9058440F551F59F05F3F71F043
:104B70004795880F97FB991F61F09F3F79F08795C4
:104B80000895121613061406551FF2CF4695F1DF4D
:104B900008C0161617061806991FF1CF86957105DD
:104BA000610508940895E894BB2766277727CB0111
:104BB00097F908952CDF08F48FEF08959B01AC015D
:104BC00060E070E080E89FE34CCE0BD0A8CF71DFAF
:104BD00028F076DF18F0952309F03DCF42CF11245D
:104BE000E3CFBFDFA0F3959FD1F3950F50E0551FA2
:104BF000629FF001729FBB27F00DB11D639FAA2732
:104C0000F00DB11DAA1F649F6627B00DA11D661F80
:104C1000829F2227B00DA11D621F739FB00DA11DA1
:104C2000621F839FA00D611D221F749F3327A00D5B
:104C3000611D231F849F600D211D822F762F6A2FF7
:104C400011249F5750408AF0E1F088234AF0EE0F7C
:104C5000FF1FBB1F661F771F881F91505040A9F789
:104C60009E3F510570F0F7CE9FCF5F3FECF3983E2B
:104C7000DCF3869577956795B795F795E7959F5FF0
:104C8000C1F7FE2B880F911D9695879597F908958A
:104C90009F931EDF0F9007FCEE5F52CF11F40EF4CE
:104CA000E0CE41C066DFD0F39923D9F3CEF39F570E
:104CB000550B87FF46D00024A0E640EA90018058BB
:104CC0005695979528F4805C660F771F881F20F013
:104CD00026173707480730F4621B730B840B202913
:104CE00031294A2BA69517940794202531254A2768
:104CF00058F7660F771F881F20F0261737074807D9
:104D000030F4620B730B840B200D311D411DA095F7
:104D100081F7B901842F9158880F9695879508954A
:104D20009B01AC0152CF9F3F31F0915020F4879509
:104D300077956795B795880F911D9695879597F903
:104D4000089591505040660F771F881FD2F708953D
:104D50009F938F937F936F93FF93EF939B01AC018E
:104D600034DFEF91FF9180DE2F913F914F915F9162
:104D70002CCFDB018F939F937DD0BF91AF91A29FEA
:104D8000800D911DA39F900DB29F900D1124089549
:104D9000991B79E004C0991F961708F0961B881F8D
:104DA0007A95C9F78095089597FB072E16F400941D
:104DB00006D077FD08D072D007FC05D03EF4909560
:104DC00081959F4F0895709561957F4F0895A1E259
:104DD0001A2EAA1BBB1BFD010DC0AA1FBB1FEE1F75
:104DE000FF1FA217B307E407F50720F0A21BB30BC0
:104DF000E40BF50B661F771F881F991F1A9469F73C
:104E000060957095809590959B01AC01BD01CF0197
:104E10000895052E97FB16F400940FD057FD05D08A
:104E2000D6DF07FC02D046F408C050954095309577
:104E300021953F4F4F4F5F4F089590958095709506
:104E400061957F4F8F4F9F4F0895EE0FFF1F059085
:104E5000F491E02D1994A29FB001B39FC001A39FCC
:104E6000700D811D1124911DB29F700D811D1124A3
:104E7000911D0895F0DFA59F900DB49F900DA49F04
:104E8000800D911D11240895B7FFF4CFF3DF821B2D
:104E9000930B08950790F691E02D1994AA1BBB1B64
:104EA00051E107C0AA1FBB1FA617B70710F0A61B2A
:104EB000B70B881F991F5A95A9F780959095BC014B
:104EC000CD010895CF93DF938230910510F482E0F5
:104ED00090E0E0912A06F0912B0620E030E0A0E07F
:104EE000B0E0309739F14081518148175907B8F047
:104EF0004817590771F482819381109729F013960E
:104F00009C938E9312972CC090932B0680932A0625
:104F100027C02115310531F04217530718F0A901B8
:104F2000DB0101C0EF019A01BD01DF010280F381C5
:104F3000E02DD7CF21153105F9F0281B390B24308E
:104F4000310580F48A819B816115710521F0FB0197
:104F50009383828304C090932B0680932A06FE01DC
:104F6000329644C0FE01E20FF31F819391932250C9
:104F70003109398328833AC02091280630912906C7
:104F8000232B41F420910202309103023093290631
:104F9000209328062091000230910102211531054D
:104FA00041F42DB73EB74091040250910502241BF5
:104FB000350BE0912806F0912906E217F307A0F4DB
:104FC0002E1B3F0B2817390778F0AC014E5F5F4F5F
:104FD0002417350748F04E0F5F1F50932906409362
:104FE00028068193919302C0E0E0F0E0CF01DF91C9
:104FF000CF910895CF93DF93009709F487C0FC0108
:10500000329713821282C0912A06D0912B062097E4
:1050100081F420813181280F391F809128069091D9
:1050200029068217930779F5F0932906E09328065D
:105030006DC0DE0120E030E0AE17BF0750F41296DD
:105040004D915C9113979D014115510509F1DA01CC
:10505000F3CFB383A28340815181840F951F8A17B8
:105060009B0771F48D919C911197840F951F029667
:105070009183808312968D919C9113979383828361
:105080002115310529F4F0932B06E0932A063EC042
:10509000D9011396FC93EE9312974D915D91A40F55
:1050A000B51FEA17FB0779F480819181840F951F62
:1050B0000296D90111969C938E93828193811396C7
:1050C0009C938E931297E0E0F0E08A819B81009799
:1050D00019F0FE01EC01F9CFCE0102962881398149
:1050E000820F931F2091280630912906281739072F
:1050F00069F4309729F410922B0610922A0602C008
:1051000013821282D0932906C0932806DF91CF9193
:1051100008951F93FC0199278827BC01E8941191F9
:105120001032E9F3193010F01E30C8F31B3249F089
:105130001D3241F4689405C031D0610F711D811D8D
:10514000911D119110531A30B8F33EF4909580954B
:10515000709561957F4F8F4F9F4F1F910895FB0171
:10516000DC018D91019080190110D9F3990B0895FC
:10517000FB01DC0101900D920020E1F70895FB0195
:10518000DC014150504048F001900D920020C9F7D9
:1051900001C01D9241505040E0F70895592F482F0B
:1051A000372F262F660F771F881F991F660F771FCF
:1051B000881F991F620F731F841F951F660F771F2B
:1051C000881F991F0895F999FECF92BD81BDF89A65
:1051D000992780B50895262FF999FECF1FBA92BD61
:1051E00081BD20BD0FB6F894FA9AF99A0FBE0196C8
:1051F000089513E0C0EDD3E000E005C02297010957
:10520000FE010BBF47DEC23DD10780E00807B1F7C2
:04521000F894FFCF40
:1052140000002C0680000100000028CD9029070022
:1052240000E52C01000053656E736F727320696E84
:10523400697469616C697A6564004E617669676155
:1052440074696F6E20696E697469616C697A6564EA
:1052540000436F6D6D7320696E697469616C697A5E
:1052640065640050696C6F7420696E697469616C5F
:10527400697A6564004E65656420746F20636F6DA0
:105284006D756E6963617465004E6176206661694F
:105294006C656420616674657220343520736563BF
:1052A4006F6E64732C20736C656570696E6700574C
:1052B400616974696E6720666F72206E617620740E
:1052C4006F2062652072656164792E2E2E007365ED
:1052D4006E64696E6721004275696C64696E67204B
:1052E400746865206D657373616765004D657373DC
:1052F40061676520666F6C6C6F77733A002D2D2D96
:105304002D2D2D001F1C1F1E1F1E1F1F1E1F1E1FA5
:1053140000000000710F450F1A0F220F350F440FC4
:10532400636865636B73756D206661696C656400A1
:10533400000000002D154C2299150C157F15B01591
:105344004750524D43004750474741004E004E4E90
:105354004500454E45004553450053534500530011
:105364005353570057535700574E57004E4E57004C
:1053740000000000CF204C2224203D202F20AE200E
:105384000D0A006E616E00696E66006F766600003D
:00000001FF
